:02000000DC2AF8
:10000800FF00030E8301B4000A08B5008A017008D6
:10001800A3007108A2007C08A1007D08A0000B1DA8
:100028001D28063081000B112408B6002508B700EA
:10003800A1212308F0002208F1002108FC00200873
:10004800FD0035088A00340E8300FF0E7F0E09007C
:10005800710DF80DF90D7408F8027508031C750F79
:10006800F902F00DF10D0F30FC00710DF80DF90DCE
:100078007408701C4528F8027508031C750FF902EE
:100088004A28F80775080318750FF907F00DF10DE0
:10009800FC0B3928701856287408F80775080318D7
:0800A800750FF90700000800C4
:1000B0000030831203133906031D60280030380610
:1000C000031D6A28051406170614851505158517DE
:1000D0008610F92800303906031D702801303806D3
:1000E000031D7A28051006170614851105118513BE
:1000F0008610F92800303906031D802802303806A2
:10010000031D8A2805140617061085150515851385
:100110008614F92800303906031D9028033038066C
:10012000031D9A2805140617061485150511851355
:100130008614F92800303906031DA028043038063B
:10014000031DAA2805100617061485110511851729
:100150008614F92800303906031DB028053038060A
:10016000031DBA28051406130614851505118517F5
:100170008614F92800303906031DC02806303806D9
:10018000031DCA28051406130614851505158517C1
:100190008614F92800303906031DD02807303806A8
:1001A000031DDA2805140617061485110511851399
:1001B0008610F92800303906031DE028083038067B
:1001C000031DEA280514061706148515051585175D
:1001D0008614F92800303906031DF0280930380646
:1001E000031DF92805140617061485150511851732
:0401F0008614080069
:1001F400831203137408003A031D09297508003A91
:10020400031D0929FF30F0007F30F10062298312B9
:100214000313FD01F901F801710870040319003496
:1002240071087506FA00FA1BFD09FB01F51F1F2969
:10023400F409F509F40A0319F50AF11F2629F0094E
:10024400F109F00A0319F10A71087504FA00FA1B9E
:100254003B292C207B184E29FD1F0034F009F1099D
:10026400F00A0319F10AF809F909F80A0319F90A55
:100274000034F51F4A29F11B46297108F90070085A
:10028400F800F101F0012E29F101F001F00A003427
:10029400F109F009FB0A2B29F80A0319F90A740871
:1002A4007802031D2E2975087902031D2E29F901F0
:1002B400F801F00A0319F10AF11F2E290000FF3496
:0202C400080030
:1002C60083120313051006130610851105118513F5
:0402D6008610080086
:0E02DA00831203132F088A002E0882000800EA
:1002E80083120313061D7A290130AD0006198229ED
:1002F8002D0803198229AD010130AA00861E86291E
:100308000130A900861A8E29290803198E29A90106
:100318000130AC00861D92290130AB0086199A295C
:100328002B0803199A29AB010130B00032080319D0
:0A033800A029B2010130B100080055
:10034200831203132608013A031DD529851CD529DA
:100352000230A6000517861763218510E830F400E5
:100362000330F5003608F0003708F100FA2078086B
:10037200F0007908F1006430F4000030F500FA2052
:100382007008B8007108B900582000302806031D13
:10039200CC2901302706031DD32933080319D32999
:1003A2000516D42905123C2A2608023A031D102AF2
:1003B200051F102A0330A600851486176321051332
:1003C200E830F4000330F5003608F0003708F10099
:1003D200FA207808F0007908F1006430F400003067
:1003E200F500FA207808F0007908F1000A30F400EC
:1003F2000030F500FA207008B8007108B9005820E2
:1004020000302806031D072A02302706031D0E2A84
:10041200330803190E2A05160F2A05123C2A26084C
:10042200033A031D3C2A861F3C2A0130A60085148C
:100432000517632186130A30F4000030F5003608F0
:10044200F0003708F100FA207808F0007908F1008E
:100452007008B8007108B900582000302806031D42
:10046200342A03302706031D3B2A330803193B2A8B
:0804720005163C2A05120800E2
:10047A00831603138501EF30831285002C3083160F
:10048A008600831286018B170B178B1606308100A4
:08049A00023083168100080006
:1004A200831203132A0803196A2AAA010130B3002E
:1004B200A70A0319A80A8030F000803028067002CB
:1004C200031D652A2708033C03186A2A0130A70086
:1004D200A80130080319A62A33080319A62AB00175
:1004E200802A6430A4070318A50A982A0A30A407B0
:1004F2000318A50A982AA40A0319A50A982A003003
:100502002806031D862A013027060319722A0030A5
:100512002806031D8E2A023027060319772A003087
:100522002806031D962A0330270603197C2A8030E9
:10053200033AF000803025067002031DA22A240827
:10054200E73C0318A62AA401A5012C080319CF2A07
:10055200B301AC01F101F20180307206F00080308B
:1005620025067002031DB72A240871020318CF2A38
:1005720006160230FC004B30FD00FD0BBE2AFC0BC0
:10058200BE2A06120230FC004B30FD00FD0BC72ACA
:0E059200FC0BC72AF10A0319F20AAD2A080071
:1005A0006D218A110A128000840AAE0A0319AF0A6B
:0805B000F003031DD02A08002E
:1005B80083120313A401A5010130A600A701A80115
:0A05C8003D2274215122E52AE82AA1
:02400E0030215F
:00000001FF
